{
  "_format": "hh-sol-artifact-1",
  "contractName": "LendingPool",
  "sourceName": "contracts/LendingPool.sol",
  "abi": [
    {
      "inputs": [
        {
          "internalType": "address",
          "name": "stableAddr",
          "type": "address"
        },
        {
          "internalType": "address",
          "name": "collateralAddr",
          "type": "address"
        },
        {
          "internalType": "address",
          "name": "oracleAddr",
          "type": "address"
        },
        {
          "internalType": "address",
          "name": "ftsoAddr",
          "type": "address"
        }
      ],
      "stateMutability": "nonpayable",
      "type": "constructor"
    },
    {
      "anonymous": false,
      "inputs": [
        {
          "indexed": true,
          "internalType": "address",
          "name": "borrower",
          "type": "address"
        },
        {
          "indexed": false,
          "internalType": "uint256",
          "name": "amount",
          "type": "uint256"
        }
      ],
      "name": "Borrowed",
      "type": "event"
    },
    {
      "anonymous": false,
      "inputs": [
        {
          "indexed": true,
          "internalType": "address",
          "name": "user",
          "type": "address"
        },
        {
          "indexed": false,
          "internalType": "uint256",
          "name": "amount",
          "type": "uint256"
        }
      ],
      "name": "CollateralAdded",
      "type": "event"
    },
    {
      "anonymous": false,
      "inputs": [
        {
          "indexed": true,
          "internalType": "address",
          "name": "lender",
          "type": "address"
        },
        {
          "indexed": false,
          "internalType": "uint256",
          "name": "amount",
          "type": "uint256"
        }
      ],
      "name": "Deposited",
      "type": "event"
    },
    {
      "anonymous": false,
      "inputs": [
        {
          "indexed": true,
          "internalType": "address",
          "name": "borrower",
          "type": "address"
        },
        {
          "indexed": false,
          "internalType": "uint256",
          "name": "amount",
          "type": "uint256"
        }
      ],
      "name": "Repaid",
      "type": "event"
    },
    {
      "inputs": [
        {
          "internalType": "uint256",
          "name": "amount",
          "type": "uint256"
        }
      ],
      "name": "addCollateral",
      "outputs": [],
      "stateMutability": "nonpayable",
      "type": "function"
    },
    {
      "inputs": [
        {
          "internalType": "address",
          "name": "to",
          "type": "address"
        },
        {
          "internalType": "uint256",
          "name": "amount",
          "type": "uint256"
        }
      ],
      "name": "adminWithdraw",
      "outputs": [],
      "stateMutability": "nonpayable",
      "type": "function"
    },
    {
      "inputs": [
        {
          "internalType": "uint256",
          "name": "amount",
          "type": "uint256"
        }
      ],
      "name": "borrow",
      "outputs": [],
      "stateMutability": "nonpayable",
      "type": "function"
    },
    {
      "inputs": [
        {
          "internalType": "address",
          "name": "",
          "type": "address"
        }
      ],
      "name": "borrows",
      "outputs": [
        {
          "internalType": "uint256",
          "name": "",
          "type": "uint256"
        }
      ],
      "stateMutability": "view",
      "type": "function"
    },
    {
      "inputs": [
        {
          "internalType": "address",
          "name": "",
          "type": "address"
        }
      ],
      "name": "collateralBalances",
      "outputs": [
        {
          "internalType": "uint256",
          "name": "",
          "type": "uint256"
        }
      ],
      "stateMutability": "view",
      "type": "function"
    },
    {
      "inputs": [],
      "name": "collateralToken",
      "outputs": [
        {
          "internalType": "contract IERC20",
          "name": "",
          "type": "address"
        }
      ],
      "stateMutability": "view",
      "type": "function"
    },
    {
      "inputs": [
        {
          "internalType": "uint256",
          "name": "amount",
          "type": "uint256"
        }
      ],
      "name": "deposit",
      "outputs": [],
      "stateMutability": "nonpayable",
      "type": "function"
    },
    {
      "inputs": [
        {
          "internalType": "address",
          "name": "",
          "type": "address"
        }
      ],
      "name": "deposits",
      "outputs": [
        {
          "internalType": "uint256",
          "name": "",
          "type": "uint256"
        }
      ],
      "stateMutability": "view",
      "type": "function"
    },
    {
      "inputs": [],
      "name": "ftso",
      "outputs": [
        {
          "internalType": "contract IFTSO",
          "name": "",
          "type": "address"
        }
      ],
      "stateMutability": "view",
      "type": "function"
    },
    {
      "inputs": [
        {
          "internalType": "address",
          "name": "user",
          "type": "address"
        }
      ],
      "name": "getBorrowLimit",
      "outputs": [
        {
          "internalType": "uint256",
          "name": "",
          "type": "uint256"
        }
      ],
      "stateMutability": "view",
      "type": "function"
    },
    {
      "inputs": [],
      "name": "oracle",
      "outputs": [
        {
          "internalType": "contract IScoreOracle",
          "name": "",
          "type": "address"
        }
      ],
      "stateMutability": "view",
      "type": "function"
    },
    {
      "inputs": [
        {
          "internalType": "uint256",
          "name": "amount",
          "type": "uint256"
        }
      ],
      "name": "repay",
      "outputs": [],
      "stateMutability": "nonpayable",
      "type": "function"
    },
    {
      "inputs": [],
      "name": "stable",
      "outputs": [
        {
          "internalType": "contract IERC20",
          "name": "",
          "type": "address"
        }
      ],
      "stateMutability": "view",
      "type": "function"
    },
    {
      "inputs": [],
      "name": "totalDeposits",
      "outputs": [
        {
          "internalType": "uint256",
          "name": "",
          "type": "uint256"
        }
      ],
      "stateMutability": "view",
      "type": "function"
    }
  ],
  "bytecode": "0x60806040523480156200001157600080fd5b5060405162001914380380620019148339818101604052810190620000379190620001b7565b600160008190555083600160006101000a81548173ffffffffffffffffffffffffffffffffffffffff021916908373ffffffffffffffffffffffffffffffffffffffff16021790555082600260006101000a81548173ffffffffffffffffffffffffffffffffffffffff021916908373ffffffffffffffffffffffffffffffffffffffff16021790555081600360006101000a81548173ffffffffffffffffffffffffffffffffffffffff021916908373ffffffffffffffffffffffffffffffffffffffff16021790555080600460006101000a81548173ffffffffffffffffffffffffffffffffffffffff021916908373ffffffffffffffffffffffffffffffffffffffff1602179055505050505062000229565b600080fd5b600073ffffffffffffffffffffffffffffffffffffffff82169050919050565b60006200017f8262000152565b9050919050565b620001918162000172565b81146200019d57600080fd5b50565b600081519050620001b18162000186565b92915050565b60008060008060808587031215620001d457620001d36200014d565b5b6000620001e487828801620001a0565b9450506020620001f787828801620001a0565b93505060406200020a87828801620001a0565b92505060606200021d87828801620001a0565b91505092959194509250565b6116db80620002396000396000f3fe608060405234801561001057600080fd5b50600436106100ea5760003560e01c80637d8820971161008c578063b6b55f2511610066578063b6b55f251461024d578063bcc46e8314610269578063c5ebeaec14610285578063fc7e286d146102a1576100ea565b80637d882097146101f35780637dc0d1d014610211578063b2016bd41461022f576100ea565b8063371fd8e6116100c8578063371fd8e61461015b578063401d44821461017757806354a5706f146101935780637c17d237146101c3576100ea565b80630da0c022146100ef57806322be3de11461010d57806329bc969d1461012b575b600080fd5b6100f76102d1565b6040516101049190610f92565b60405180910390f35b6101156102f7565b6040516101229190610fce565b60405180910390f35b6101456004803603810190610140919061102c565b61031d565b6040516101529190611072565b60405180910390f35b610175600480360381019061017091906110b9565b610335565b005b610191600480360381019061018c91906110e6565b610554565b005b6101ad60048036038101906101a8919061102c565b610657565b6040516101ba9190611072565b60405180910390f35b6101dd60048036038101906101d8919061102c565b61066f565b6040516101ea9190611072565b60405180910390f35b6101fb610759565b6040516102089190611072565b60405180910390f35b61021961075f565b6040516102269190611147565b60405180910390f35b610237610785565b6040516102449190610fce565b60405180910390f35b610267600480360381019061026291906110b9565b6107ab565b005b610283600480360381019061027e91906110b9565b610961565b005b61029f600480360381019061029a91906110b9565b610afe565b005b6102bb60048036038101906102b6919061102c565b610d79565b6040516102c89190611072565b60405180910390f35b600460009054906101000a900473ffffffffffffffffffffffffffffffffffffffff1681565b600160009054906101000a900473ffffffffffffffffffffffffffffffffffffffff1681565b60066020528060005260406000206000915090505481565b61033d610d91565b60008111610380576040517f08c379a0000000000000000000000000000000000000000000000000000000008152600401610377906111bf565b60405180910390fd5b80600760003373ffffffffffffffffffffffffffffffffffffffff1673ffffffffffffffffffffffffffffffffffffffff168152602001908152602001600020541015610402576040517f08c379a00000000000000000000000000000000000000000000000000000000081526004016103f99061122b565b60405180910390fd5b600160009054906101000a900473ffffffffffffffffffffffffffffffffffffffff1673ffffffffffffffffffffffffffffffffffffffff166323b872dd3330846040518463ffffffff1660e01b81526004016104619392919061125a565b6020604051808303816000875af1158015610480573d6000803e3d6000fd5b505050506040513d601f19601f820116820180604052508101906104a491906112c9565b5080600760003373ffffffffffffffffffffffffffffffffffffffff1673ffffffffffffffffffffffffffffffffffffffff16815260200190815260200160002060008282546104f49190611325565b925050819055503373ffffffffffffffffffffffffffffffffffffffff167f0516911bcc3a0a7412a44601057c0a0a1ec628bde049a84284bc428866534488826040516105419190611072565b60405180910390a2610551610de0565b50565b600854811115610599576040517f08c379a0000000000000000000000000000000000000000000000000000000008152600401610590906113a5565b60405180910390fd5b600160009054906101000a900473ffffffffffffffffffffffffffffffffffffffff1673ffffffffffffffffffffffffffffffffffffffff1663a9059cbb83836040518363ffffffff1660e01b81526004016105f69291906113c5565b6020604051808303816000875af1158015610615573d6000803e3d6000fd5b505050506040513d601f19601f8201168201806040525081019061063991906112c9565b50806008600082825461064c9190611325565b925050819055505050565b60076020528060005260406000206000915090505481565b600080600360009054906101000a900473ffffffffffffffffffffffffffffffffffffffff1673ffffffffffffffffffffffffffffffffffffffff1663d47875d0846040518263ffffffff1660e01b81526004016106cd91906113ee565b602060405180830381865afa1580156106ea573d6000803e3d6000fd5b505050506040513d601f19601f8201168201806040525081019061070e919061141e565b9050600061071b84610dea565b9050600061025890506000620f4240828486610737919061144b565b610741919061144b565b61074b91906114bc565b905080945050505050919050565b60085481565b600360009054906101000a900473ffffffffffffffffffffffffffffffffffffffff1681565b600260009054906101000a900473ffffffffffffffffffffffffffffffffffffffff1681565b6107b3610d91565b600081116107f6576040517f08c379a00000000000000000000000000000000000000000000000000000000081526004016107ed906111bf565b60405180910390fd5b600160009054906101000a900473ffffffffffffffffffffffffffffffffffffffff1673ffffffffffffffffffffffffffffffffffffffff166323b872dd3330846040518463ffffffff1660e01b81526004016108559392919061125a565b6020604051808303816000875af1158015610874573d6000803e3d6000fd5b505050506040513d601f19601f8201168201806040525081019061089891906112c9565b5080600560003373ffffffffffffffffffffffffffffffffffffffff1673ffffffffffffffffffffffffffffffffffffffff16815260200190815260200160002060008282546108e891906114ed565b92505081905550806008600082825461090191906114ed565b925050819055503373ffffffffffffffffffffffffffffffffffffffff167f2da466a7b24304f47e87fa2e1e5a81b9831ce54fec19055ce277ca2f39ba42c48260405161094e9190611072565b60405180910390a261095e610de0565b50565b610969610d91565b600081116109ac576040517f08c379a00000000000000000000000000000000000000000000000000000000081526004016109a3906111bf565b60405180910390fd5b600260009054906101000a900473ffffffffffffffffffffffffffffffffffffffff1673ffffffffffffffffffffffffffffffffffffffff166323b872dd3330846040518463ffffffff1660e01b8152600401610a0b9392919061125a565b6020604051808303816000875af1158015610a2a573d6000803e3d6000fd5b505050506040513d601f19601f82011682018060405250810190610a4e91906112c9565b5080600660003373ffffffffffffffffffffffffffffffffffffffff1673ffffffffffffffffffffffffffffffffffffffff1681526020019081526020016000206000828254610a9e91906114ed565b925050819055503373ffffffffffffffffffffffffffffffffffffffff167f7dba1be544024070cd5eebfa8bdd80a8b198cea8058c7d3cc1f8dd36e41ab2f782604051610aeb9190611072565b60405180910390a2610afb610de0565b50565b610b06610d91565b60008111610b49576040517f08c379a0000000000000000000000000000000000000000000000000000000008152600401610b40906111bf565b60405180910390fd5b6000610b543361066f565b90508082600760003373ffffffffffffffffffffffffffffffffffffffff1673ffffffffffffffffffffffffffffffffffffffff16815260200190815260200160002054610ba291906114ed565b1115610be3576040517f08c379a0000000000000000000000000000000000000000000000000000000008152600401610bda9061156d565b60405180910390fd5b600854821115610c28576040517f08c379a0000000000000000000000000000000000000000000000000000000008152600401610c1f906115d9565b60405180910390fd5b81600760003373ffffffffffffffffffffffffffffffffffffffff1673ffffffffffffffffffffffffffffffffffffffff1681526020019081526020016000206000828254610c7791906114ed565b92505081905550600160009054906101000a900473ffffffffffffffffffffffffffffffffffffffff1673ffffffffffffffffffffffffffffffffffffffff1663a9059cbb33846040518363ffffffff1660e01b8152600401610cdb9291906113c5565b6020604051808303816000875af1158015610cfa573d6000803e3d6000fd5b505050506040513d601f19601f82011682018060405250810190610d1e91906112c9565b503373ffffffffffffffffffffffffffffffffffffffff167fac59582e5396aca512fa873a2047e7f4c80f8f55d4a06cb34a78a0187f62719f83604051610d659190611072565b60405180910390a250610d76610de0565b50565b60056020528060005260406000206000915090505481565b600260005403610dd6576040517f08c379a0000000000000000000000000000000000000000000000000000000008152600401610dcd90611645565b60405180910390fd5b6002600081905550565b6001600081905550565b600080600460009054906101000a900473ffffffffffffffffffffffffffffffffffffffff1673ffffffffffffffffffffffffffffffffffffffff166316345f18600260009054906101000a900473ffffffffffffffffffffffffffffffffffffffff166040518263ffffffff1660e01b8152600401610e6a91906113ee565b6040805180830381865afa158015610e86573d6000803e3d6000fd5b505050506040513d601f19601f82011682018060405250810190610eaa9190611665565b509050670de0b6b3a764000081600660008673ffffffffffffffffffffffffffffffffffffffff1673ffffffffffffffffffffffffffffffffffffffff16815260200190815260200160002054610f01919061144b565b610f0b91906114bc565b915050919050565b600073ffffffffffffffffffffffffffffffffffffffff82169050919050565b6000819050919050565b6000610f58610f53610f4e84610f13565b610f33565b610f13565b9050919050565b6000610f6a82610f3d565b9050919050565b6000610f7c82610f5f565b9050919050565b610f8c81610f71565b82525050565b6000602082019050610fa76000830184610f83565b92915050565b6000610fb882610f5f565b9050919050565b610fc881610fad565b82525050565b6000602082019050610fe36000830184610fbf565b92915050565b600080fd5b6000610ff982610f13565b9050919050565b61100981610fee565b811461101457600080fd5b50565b60008135905061102681611000565b92915050565b60006020828403121561104257611041610fe9565b5b600061105084828501611017565b91505092915050565b6000819050919050565b61106c81611059565b82525050565b60006020820190506110876000830184611063565b92915050565b61109681611059565b81146110a157600080fd5b50565b6000813590506110b38161108d565b92915050565b6000602082840312156110cf576110ce610fe9565b5b60006110dd848285016110a4565b91505092915050565b600080604083850312156110fd576110fc610fe9565b5b600061110b85828601611017565b925050602061111c858286016110a4565b9150509250929050565b600061113182610f5f565b9050919050565b61114181611126565b82525050565b600060208201905061115c6000830184611138565b92915050565b600082825260208201905092915050565b7f616d6f756e743e30000000000000000000000000000000000000000000000000600082015250565b60006111a9600883611162565b91506111b482611173565b602082019050919050565b600060208201905081810360008301526111d88161119c565b9050919050565b7f7265706179203e20626f72726f77000000000000000000000000000000000000600082015250565b6000611215600e83611162565b9150611220826111df565b602082019050919050565b6000602082019050818103600083015261124481611208565b9050919050565b61125481610fee565b82525050565b600060608201905061126f600083018661124b565b61127c602083018561124b565b6112896040830184611063565b949350505050565b60008115159050919050565b6112a681611291565b81146112b157600080fd5b50565b6000815190506112c38161129d565b92915050565b6000602082840312156112df576112de610fe9565b5b60006112ed848285016112b4565b91505092915050565b7f4e487b7100000000000000000000000000000000000000000000000000000000600052601160045260246000fd5b600061133082611059565b915061133b83611059565b9250828203905081811115611353576113526112f6565b5b92915050565b7f746f6f206d756368000000000000000000000000000000000000000000000000600082015250565b600061138f600883611162565b915061139a82611359565b602082019050919050565b600060208201905081810360008301526113be81611382565b9050919050565b60006040820190506113da600083018561124b565b6113e76020830184611063565b9392505050565b6000602082019050611403600083018461124b565b92915050565b6000815190506114188161108d565b92915050565b60006020828403121561143457611433610fe9565b5b600061144284828501611409565b91505092915050565b600061145682611059565b915061146183611059565b925082820261146f81611059565b91508282048414831517611486576114856112f6565b5b5092915050565b7f4e487b7100000000000000000000000000000000000000000000000000000000600052601260045260246000fd5b60006114c782611059565b91506114d283611059565b9250826114e2576114e161148d565b5b828204905092915050565b60006114f882611059565b915061150383611059565b925082820190508082111561151b5761151a6112f6565b5b92915050565b7f65786365656473206c696d697400000000000000000000000000000000000000600082015250565b6000611557600d83611162565b915061156282611521565b602082019050919050565b600060208201905081810360008301526115868161154a565b9050919050565b7f696e73756666696369656e74206c697175696469747900000000000000000000600082015250565b60006115c3601683611162565b91506115ce8261158d565b602082019050919050565b600060208201905081810360008301526115f2816115b6565b9050919050565b7f5265656e7472616e637947756172643a207265656e7472616e742063616c6c00600082015250565b600061162f601f83611162565b915061163a826115f9565b602082019050919050565b6000602082019050818103600083015261165e81611622565b9050919050565b6000806040838503121561167c5761167b610fe9565b5b600061168a85828601611409565b925050602061169b85828601611409565b915050925092905056fea26469706673582212201e3ad8cf44b7944c8a827d53c0cf5ebd2fb4bd4f3116a80fb8a9c4e30ae9ea4c64736f6c63430008130033",
  "linkReferences": {},
  "deployedLinkReferences": {}
}