{
  "_format": "hh-sol-artifact-1",
  "contractName": "ScoreOracle",
  "sourceName": "contracts/ScoreOracle.sol",
  "abi": [
    {
      "inputs": [],
      "stateMutability": "nonpayable",
      "type": "constructor"
    },
    {
      "anonymous": false,
      "inputs": [
        {
          "indexed": true,
          "internalType": "address",
          "name": "user",
          "type": "address"
        },
        {
          "indexed": false,
          "internalType": "uint256",
          "name": "score",
          "type": "uint256"
        },
        {
          "indexed": true,
          "internalType": "address",
          "name": "reporter",
          "type": "address"
        }
      ],
      "name": "ScoreUpdated",
      "type": "event"
    },
    {
      "inputs": [],
      "name": "admin",
      "outputs": [
        {
          "internalType": "address",
          "name": "",
          "type": "address"
        }
      ],
      "stateMutability": "view",
      "type": "function"
    },
    {
      "inputs": [
        {
          "internalType": "address",
          "name": "user",
          "type": "address"
        }
      ],
      "name": "getScore",
      "outputs": [
        {
          "internalType": "uint256",
          "name": "",
          "type": "uint256"
        }
      ],
      "stateMutability": "view",
      "type": "function"
    },
    {
      "inputs": [
        {
          "internalType": "address",
          "name": "user",
          "type": "address"
        },
        {
          "internalType": "uint256",
          "name": "score",
          "type": "uint256"
        }
      ],
      "name": "postScore",
      "outputs": [],
      "stateMutability": "nonpayable",
      "type": "function"
    },
    {
      "inputs": [
        {
          "internalType": "address",
          "name": "",
          "type": "address"
        }
      ],
      "name": "scores",
      "outputs": [
        {
          "internalType": "uint256",
          "name": "score",
          "type": "uint256"
        },
        {
          "internalType": "uint256",
          "name": "timestamp",
          "type": "uint256"
        },
        {
          "internalType": "address",
          "name": "reporter",
          "type": "address"
        }
      ],
      "stateMutability": "view",
      "type": "function"
    }
  ],
  "bytecode": "0x608060405234801561001057600080fd5b5033600160006101000a81548173ffffffffffffffffffffffffffffffffffffffff021916908373ffffffffffffffffffffffffffffffffffffffff160217905550610567806100616000396000f3fe608060405234801561001057600080fd5b506004361061004c5760003560e01c806376dd110f14610051578063d47875d014610083578063f851a440146100b3578063fca350c4146100d1575b600080fd5b61006b60048036038101906100669190610386565b6100ed565b60405161007a939291906103db565b60405180910390f35b61009d60048036038101906100989190610386565b610137565b6040516100aa9190610412565b60405180910390f35b6100bb610182565b6040516100c8919061042d565b60405180910390f35b6100eb60048036038101906100e69190610474565b6101a8565b005b60006020528060005260406000206000915090508060000154908060010154908060020160009054906101000a900473ffffffffffffffffffffffffffffffffffffffff16905083565b60008060008373ffffffffffffffffffffffffffffffffffffffff1673ffffffffffffffffffffffffffffffffffffffff168152602001908152602001600020600001549050919050565b600160009054906101000a900473ffffffffffffffffffffffffffffffffffffffff1681565b6103e88111156101ed576040517f08c379a00000000000000000000000000000000000000000000000000000000081526004016101e490610511565b60405180910390fd5b60405180606001604052808281526020014281526020013373ffffffffffffffffffffffffffffffffffffffff168152506000808473ffffffffffffffffffffffffffffffffffffffff1673ffffffffffffffffffffffffffffffffffffffff168152602001908152602001600020600082015181600001556020820151816001015560408201518160020160006101000a81548173ffffffffffffffffffffffffffffffffffffffff021916908373ffffffffffffffffffffffffffffffffffffffff1602179055509050503373ffffffffffffffffffffffffffffffffffffffff168273ffffffffffffffffffffffffffffffffffffffff167f957a7e48f1655c7d748cc915363f332b077b8b1750d8e765e5bf5dcd747d289a836040516103179190610412565b60405180910390a35050565b600080fd5b600073ffffffffffffffffffffffffffffffffffffffff82169050919050565b600061035382610328565b9050919050565b61036381610348565b811461036e57600080fd5b50565b6000813590506103808161035a565b92915050565b60006020828403121561039c5761039b610323565b5b60006103aa84828501610371565b91505092915050565b6000819050919050565b6103c6816103b3565b82525050565b6103d581610348565b82525050565b60006060820190506103f060008301866103bd565b6103fd60208301856103bd565b61040a60408301846103cc565b949350505050565b600060208201905061042760008301846103bd565b92915050565b600060208201905061044260008301846103cc565b92915050565b610451816103b3565b811461045c57600080fd5b50565b60008135905061046e81610448565b92915050565b6000806040838503121561048b5761048a610323565b5b600061049985828601610371565b92505060206104aa8582860161045f565b9150509250929050565b600082825260208201905092915050565b7f73636f72652072616e6765000000000000000000000000000000000000000000600082015250565b60006104fb600b836104b4565b9150610506826104c5565b602082019050919050565b6000602082019050818103600083015261052a816104ee565b905091905056fea264697066735822122030af23cfb6b5d2d676f4636f36b8e445296ea1b46784ff259fab49b59e95f41c64736f6c63430008130033",
  "linkReferences": {},
  "deployedLinkReferences": {}
}