{
  "_format": "hh-sol-artifact-1",
  "contractName": "SoulBound",
  "sourceName": "contracts/SoulBound.sol",
  "abi": [
    {
      "inputs": [],
      "stateMutability": "nonpayable",
      "type": "constructor"
    },
    {
      "anonymous": false,
      "inputs": [
        {
          "indexed": true,
          "internalType": "address",
          "name": "owner",
          "type": "address"
        },
        {
          "indexed": true,
          "internalType": "address",
          "name": "approved",
          "type": "address"
        },
        {
          "indexed": true,
          "internalType": "uint256",
          "name": "tokenId",
          "type": "uint256"
        }
      ],
      "name": "Approval",
      "type": "event"
    },
    {
      "anonymous": false,
      "inputs": [
        {
          "indexed": true,
          "internalType": "address",
          "name": "owner",
          "type": "address"
        },
        {
          "indexed": true,
          "internalType": "address",
          "name": "operator",
          "type": "address"
        },
        {
          "indexed": false,
          "internalType": "bool",
          "name": "approved",
          "type": "bool"
        }
      ],
      "name": "ApprovalForAll",
      "type": "event"
    },
    {
      "anonymous": false,
      "inputs": [
        {
          "indexed": true,
          "internalType": "address",
          "name": "previousOwner",
          "type": "address"
        },
        {
          "indexed": true,
          "internalType": "address",
          "name": "newOwner",
          "type": "address"
        }
      ],
      "name": "OwnershipTransferred",
      "type": "event"
    },
    {
      "anonymous": false,
      "inputs": [
        {
          "indexed": true,
          "internalType": "address",
          "name": "from",
          "type": "address"
        },
        {
          "indexed": true,
          "internalType": "address",
          "name": "to",
          "type": "address"
        },
        {
          "indexed": true,
          "internalType": "uint256",
          "name": "tokenId",
          "type": "uint256"
        }
      ],
      "name": "Transfer",
      "type": "event"
    },
    {
      "inputs": [
        {
          "internalType": "address",
          "name": "to",
          "type": "address"
        },
        {
          "internalType": "uint256",
          "name": "tokenId",
          "type": "uint256"
        }
      ],
      "name": "approve",
      "outputs": [],
      "stateMutability": "nonpayable",
      "type": "function"
    },
    {
      "inputs": [
        {
          "internalType": "address",
          "name": "owner",
          "type": "address"
        }
      ],
      "name": "balanceOf",
      "outputs": [
        {
          "internalType": "uint256",
          "name": "",
          "type": "uint256"
        }
      ],
      "stateMutability": "view",
      "type": "function"
    },
    {
      "inputs": [
        {
          "internalType": "uint256",
          "name": "tokenId",
          "type": "uint256"
        }
      ],
      "name": "getApproved",
      "outputs": [
        {
          "internalType": "address",
          "name": "",
          "type": "address"
        }
      ],
      "stateMutability": "view",
      "type": "function"
    },
    {
      "inputs": [
        {
          "internalType": "address",
          "name": "owner",
          "type": "address"
        },
        {
          "internalType": "address",
          "name": "operator",
          "type": "address"
        }
      ],
      "name": "isApprovedForAll",
      "outputs": [
        {
          "internalType": "bool",
          "name": "",
          "type": "bool"
        }
      ],
      "stateMutability": "view",
      "type": "function"
    },
    {
      "inputs": [
        {
          "internalType": "address",
          "name": "to",
          "type": "address"
        }
      ],
      "name": "mint",
      "outputs": [
        {
          "internalType": "uint256",
          "name": "",
          "type": "uint256"
        }
      ],
      "stateMutability": "nonpayable",
      "type": "function"
    },
    {
      "inputs": [],
      "name": "name",
      "outputs": [
        {
          "internalType": "string",
          "name": "",
          "type": "string"
        }
      ],
      "stateMutability": "view",
      "type": "function"
    },
    {
      "inputs": [],
      "name": "nextId",
      "outputs": [
        {
          "internalType": "uint256",
          "name": "",
          "type": "uint256"
        }
      ],
      "stateMutability": "view",
      "type": "function"
    },
    {
      "inputs": [],
      "name": "owner",
      "outputs": [
        {
          "internalType": "address",
          "name": "",
          "type": "address"
        }
      ],
      "stateMutability": "view",
      "type": "function"
    },
    {
      "inputs": [
        {
          "internalType": "uint256",
          "name": "tokenId",
          "type": "uint256"
        }
      ],
      "name": "ownerOf",
      "outputs": [
        {
          "internalType": "address",
          "name": "",
          "type": "address"
        }
      ],
      "stateMutability": "view",
      "type": "function"
    },
    {
      "inputs": [],
      "name": "renounceOwnership",
      "outputs": [],
      "stateMutability": "nonpayable",
      "type": "function"
    },
    {
      "inputs": [
        {
          "internalType": "uint256",
          "name": "",
          "type": "uint256"
        }
      ],
      "name": "reputation",
      "outputs": [
        {
          "internalType": "uint256",
          "name": "",
          "type": "uint256"
        }
      ],
      "stateMutability": "view",
      "type": "function"
    },
    {
      "inputs": [
        {
          "internalType": "address",
          "name": "from",
          "type": "address"
        },
        {
          "internalType": "address",
          "name": "to",
          "type": "address"
        },
        {
          "internalType": "uint256",
          "name": "tokenId",
          "type": "uint256"
        }
      ],
      "name": "safeTransferFrom",
      "outputs": [],
      "stateMutability": "nonpayable",
      "type": "function"
    },
    {
      "inputs": [
        {
          "internalType": "address",
          "name": "from",
          "type": "address"
        },
        {
          "internalType": "address",
          "name": "to",
          "type": "address"
        },
        {
          "internalType": "uint256",
          "name": "tokenId",
          "type": "uint256"
        },
        {
          "internalType": "bytes",
          "name": "data",
          "type": "bytes"
        }
      ],
      "name": "safeTransferFrom",
      "outputs": [],
      "stateMutability": "nonpayable",
      "type": "function"
    },
    {
      "inputs": [
        {
          "internalType": "address",
          "name": "operator",
          "type": "address"
        },
        {
          "internalType": "bool",
          "name": "approved",
          "type": "bool"
        }
      ],
      "name": "setApprovalForAll",
      "outputs": [],
      "stateMutability": "nonpayable",
      "type": "function"
    },
    {
      "inputs": [
        {
          "internalType": "uint256",
          "name": "tokenId",
          "type": "uint256"
        },
        {
          "internalType": "uint256",
          "name": "score",
          "type": "uint256"
        }
      ],
      "name": "setReputation",
      "outputs": [],
      "stateMutability": "nonpayable",
      "type": "function"
    },
    {
      "inputs": [
        {
          "internalType": "bytes4",
          "name": "interfaceId",
          "type": "bytes4"
        }
      ],
      "name": "supportsInterface",
      "outputs": [
        {
          "internalType": "bool",
          "name": "",
          "type": "bool"
        }
      ],
      "stateMutability": "view",
      "type": "function"
    },
    {
      "inputs": [],
      "name": "symbol",
      "outputs": [
        {
          "internalType": "string",
          "name": "",
          "type": "string"
        }
      ],
      "stateMutability": "view",
      "type": "function"
    },
    {
      "inputs": [
        {
          "internalType": "address",
          "name": "owner",
          "type": "address"
        }
      ],
      "name": "tokenOfOwner",
      "outputs": [
        {
          "internalType": "uint256",
          "name": "",
          "type": "uint256"
        }
      ],
      "stateMutability": "view",
      "type": "function"
    },
    {
      "inputs": [
        {
          "internalType": "uint256",
          "name": "tokenId",
          "type": "uint256"
        }
      ],
      "name": "tokenURI",
      "outputs": [
        {
          "internalType": "string",
          "name": "",
          "type": "string"
        }
      ],
      "stateMutability": "view",
      "type": "function"
    },
    {
      "inputs": [
        {
          "internalType": "address",
          "name": "from",
          "type": "address"
        },
        {
          "internalType": "address",
          "name": "to",
          "type": "address"
        },
        {
          "internalType": "uint256",
          "name": "tokenId",
          "type": "uint256"
        }
      ],
      "name": "transferFrom",
      "outputs": [],
      "stateMutability": "nonpayable",
      "type": "function"
    },
    {
      "inputs": [
        {
          "internalType": "address",
          "name": "newOwner",
          "type": "address"
        }
      ],
      "name": "transferOwnership",
      "outputs": [],
      "stateMutability": "nonpayable",
      "type": "function"
    }
  ],
  "bytecode": "0x60806040523480156200001157600080fd5b506040518060400160405280600f81526020017f536f756c426f756e6443726564697400000000000000000000000000000000008152506040518060400160405280600381526020017f534243000000000000000000000000000000000000000000000000000000000081525081600090816200008f919062000412565b508060019081620000a1919062000412565b505050620000c4620000b8620000ca60201b60201c565b620000d260201b60201c565b620004f9565b600033905090565b6000600660009054906101000a900473ffffffffffffffffffffffffffffffffffffffff16905081600660006101000a81548173ffffffffffffffffffffffffffffffffffffffff021916908373ffffffffffffffffffffffffffffffffffffffff1602179055508173ffffffffffffffffffffffffffffffffffffffff168173ffffffffffffffffffffffffffffffffffffffff167f8be0079c531659141344cd1fd0a4f28419497f9722a3daafe3b4186f6b6457e060405160405180910390a35050565b600081519050919050565b7f4e487b7100000000000000000000000000000000000000000000000000000000600052604160045260246000fd5b7f4e487b7100000000000000000000000000000000000000000000000000000000600052602260045260246000fd5b600060028204905060018216806200021a57607f821691505b60208210810362000230576200022f620001d2565b5b50919050565b60008190508160005260206000209050919050565b60006020601f8301049050919050565b600082821b905092915050565b6000600883026200029a7fffffffffffffffffffffffffffffffffffffffffffffffffffffffffffffffff826200025b565b620002a686836200025b565b95508019841693508086168417925050509392505050565b6000819050919050565b6000819050919050565b6000620002f3620002ed620002e784620002be565b620002c8565b620002be565b9050919050565b6000819050919050565b6200030f83620002d2565b620003276200031e82620002fa565b84845462000268565b825550505050565b600090565b6200033e6200032f565b6200034b81848462000304565b505050565b5b8181101562000373576200036760008262000334565b60018101905062000351565b5050565b601f821115620003c2576200038c8162000236565b62000397846200024b565b81016020851015620003a7578190505b620003bf620003b6856200024b565b83018262000350565b50505b505050565b600082821c905092915050565b6000620003e760001984600802620003c7565b1980831691505092915050565b6000620004028383620003d4565b9150826002028217905092915050565b6200041d8262000198565b67ffffffffffffffff811115620004395762000438620001a3565b5b62000445825462000201565b6200045282828562000377565b600060209050601f8311600181146200048a576000841562000475578287015190505b620004818582620003f4565b865550620004f1565b601f1984166200049a8662000236565b60005b82811015620004c4578489015182556001820191506020850194506020810190506200049d565b86831015620004e45784890151620004e0601f891682620003d4565b8355505b6001600288020188555050505b505050505050565b612d4f80620005096000396000f3fe608060405234801561001057600080fd5b50600436106101375760003560e01c80636352211e116100b857806395d89b411161007c57806395d89b4114610360578063a22cb4651461037e578063b88d4fde1461039a578063c87b56dd146103b6578063e985e9c5146103e6578063f2fde38b1461041657610137565b80636352211e146102a85780636a627842146102d857806370a0823114610308578063715018a6146103385780638da5cb5b1461034257610137565b806328252725116100ff57806328252725146101f2578063294cdf0d1461020e57806342842e0e1461023e57806356c708d51461025a57806361b8ce8c1461028a57610137565b806301ffc9a71461013c57806306fdde031461016c578063081812fc1461018a578063095ea7b3146101ba57806323b872dd146101d6575b600080fd5b61015660048036038101906101519190611d52565b610432565b6040516101639190611d9a565b60405180910390f35b610174610514565b6040516101819190611e45565b60405180910390f35b6101a4600480360381019061019f9190611e9d565b6105a6565b6040516101b19190611f0b565b60405180910390f35b6101d460048036038101906101cf9190611f52565b6105ec565b005b6101f060048036038101906101eb9190611f92565b610703565b005b61020c60048036038101906102079190611fe5565b610763565b005b61022860048036038101906102239190612025565b6107cf565b6040516102359190612061565b60405180910390f35b61025860048036038101906102539190611f92565b610878565b005b610274600480360381019061026f9190611e9d565b610898565b6040516102819190612061565b60405180910390f35b6102926108b0565b60405161029f9190612061565b60405180910390f35b6102c260048036038101906102bd9190611e9d565b6108b6565b6040516102cf9190611f0b565b60405180910390f35b6102f260048036038101906102ed9190612025565b61093c565b6040516102ff9190612061565b60405180910390f35b610322600480360381019061031d9190612025565b61099e565b60405161032f9190612061565b60405180910390f35b610340610a55565b005b61034a610a69565b6040516103579190611f0b565b60405180910390f35b610368610a93565b6040516103759190611e45565b60405180910390f35b610398600480360381019061039391906120a8565b610b25565b005b6103b460048036038101906103af919061221d565b610b3b565b005b6103d060048036038101906103cb9190611e9d565b610b9d565b6040516103dd9190611e45565b60405180910390f35b61040060048036038101906103fb91906122a0565b610c05565b60405161040d9190611d9a565b60405180910390f35b610430600480360381019061042b9190612025565b610c99565b005b60007f80ac58cd000000000000000000000000000000000000000000000000000000007bffffffffffffffffffffffffffffffffffffffffffffffffffffffff1916827bffffffffffffffffffffffffffffffffffffffffffffffffffffffff191614806104fd57507f5b5e139f000000000000000000000000000000000000000000000000000000007bffffffffffffffffffffffffffffffffffffffffffffffffffffffff1916827bffffffffffffffffffffffffffffffffffffffffffffffffffffffff1916145b8061050d575061050c82610d1c565b5b9050919050565b6060600080546105239061230f565b80601f016020809104026020016040519081016040528092919081815260200182805461054f9061230f565b801561059c5780601f106105715761010080835404028352916020019161059c565b820191906000526020600020905b81548152906001019060200180831161057f57829003601f168201915b5050505050905090565b60006105b182610d86565b6004600083815260200190815260200160002060009054906101000a900473ffffffffffffffffffffffffffffffffffffffff169050919050565b60006105f7826108b6565b90508073ffffffffffffffffffffffffffffffffffffffff168373ffffffffffffffffffffffffffffffffffffffff1603610667576040517f08c379a000000000000000000000000000000000000000000000000000000000815260040161065e906123b2565b60405180910390fd5b8073ffffffffffffffffffffffffffffffffffffffff16610686610dd1565b73ffffffffffffffffffffffffffffffffffffffff1614806106b557506106b4816106af610dd1565b610c05565b5b6106f4576040517f08c379a00000000000000000000000000000000000000000000000000000000081526004016106eb90612444565b60405180910390fd5b6106fe8383610dd9565b505050565b61071461070e610dd1565b82610e92565b610753576040517f08c379a000000000000000000000000000000000000000000000000000000000815260040161074a906124d6565b60405180910390fd5b61075e838383610f27565b505050565b61076b611220565b6107748261129e565b6107b3576040517f08c379a00000000000000000000000000000000000000000000000000000000081526004016107aa90612542565b60405180910390fd5b8060096000848152602001908152602001600020819055505050565b600080600190505b6007548111610837578273ffffffffffffffffffffffffffffffffffffffff16610800826108b6565b73ffffffffffffffffffffffffffffffffffffffff16036108245780915050610873565b808061082f90612591565b9150506107d7565b506040517f08c379a000000000000000000000000000000000000000000000000000000000815260040161086a90612625565b60405180910390fd5b919050565b61089383838360405180602001604052806000815250610b3b565b505050565b60096020528060005260406000206000915090505481565b60075481565b6000806108c2836112df565b9050600073ffffffffffffffffffffffffffffffffffffffff168173ffffffffffffffffffffffffffffffffffffffff1603610933576040517f08c379a000000000000000000000000000000000000000000000000000000000815260040161092a90612691565b60405180910390fd5b80915050919050565b6000610946611220565b600060076000815461095790612591565b9190508190559050610969838261131c565b60016008600083815260200190815260200160002060006101000a81548160ff02191690831515021790555080915050919050565b60008073ffffffffffffffffffffffffffffffffffffffff168273ffffffffffffffffffffffffffffffffffffffff1603610a0e576040517f08c379a0000000000000000000000000000000000000000000000000000000008152600401610a0590612723565b60405180910390fd5b600360008373ffffffffffffffffffffffffffffffffffffffff1673ffffffffffffffffffffffffffffffffffffffff168152602001908152602001600020549050919050565b610a5d611220565b610a67600061133a565b565b6000600660009054906101000a900473ffffffffffffffffffffffffffffffffffffffff16905090565b606060018054610aa29061230f565b80601f0160208091040260200160405190810160405280929190818152602001828054610ace9061230f565b8015610b1b5780601f10610af057610100808354040283529160200191610b1b565b820191906000526020600020905b815481529060010190602001808311610afe57829003601f168201915b5050505050905090565b610b37610b30610dd1565b8383611400565b5050565b610b4c610b46610dd1565b83610e92565b610b8b576040517f08c379a0000000000000000000000000000000000000000000000000000000008152600401610b82906124d6565b60405180910390fd5b610b978484848461156c565b50505050565b6060610ba882610d86565b6000610bb26115c8565b90506000815111610bd25760405180602001604052806000815250610bfd565b80610bdc846115df565b604051602001610bed92919061277f565b6040516020818303038152906040525b915050919050565b6000600560008473ffffffffffffffffffffffffffffffffffffffff1673ffffffffffffffffffffffffffffffffffffffff16815260200190815260200160002060008373ffffffffffffffffffffffffffffffffffffffff1673ffffffffffffffffffffffffffffffffffffffff16815260200190815260200160002060009054906101000a900460ff16905092915050565b610ca1611220565b600073ffffffffffffffffffffffffffffffffffffffff168173ffffffffffffffffffffffffffffffffffffffff1603610d10576040517f08c379a0000000000000000000000000000000000000000000000000000000008152600401610d0790612815565b60405180910390fd5b610d198161133a565b50565b60007f01ffc9a7000000000000000000000000000000000000000000000000000000007bffffffffffffffffffffffffffffffffffffffffffffffffffffffff1916827bffffffffffffffffffffffffffffffffffffffffffffffffffffffff1916149050919050565b610d8f8161129e565b610dce576040517f08c379a0000000000000000000000000000000000000000000000000000000008152600401610dc590612691565b60405180910390fd5b50565b600033905090565b816004600083815260200190815260200160002060006101000a81548173ffffffffffffffffffffffffffffffffffffffff021916908373ffffffffffffffffffffffffffffffffffffffff160217905550808273ffffffffffffffffffffffffffffffffffffffff16610e4c836108b6565b73ffffffffffffffffffffffffffffffffffffffff167f8c5be1e5ebec7d5bd14f71427d1e84f3dd0314c0f7b2291e5b200ac8c7c3b92560405160405180910390a45050565b600080610e9e836108b6565b90508073ffffffffffffffffffffffffffffffffffffffff168473ffffffffffffffffffffffffffffffffffffffff161480610ee05750610edf8185610c05565b5b80610f1e57508373ffffffffffffffffffffffffffffffffffffffff16610f06846105a6565b73ffffffffffffffffffffffffffffffffffffffff16145b91505092915050565b8273ffffffffffffffffffffffffffffffffffffffff16610f47826108b6565b73ffffffffffffffffffffffffffffffffffffffff1614610f9d576040517f08c379a0000000000000000000000000000000000000000000000000000000008152600401610f94906128a7565b60405180910390fd5b600073ffffffffffffffffffffffffffffffffffffffff168273ffffffffffffffffffffffffffffffffffffffff160361100c576040517f08c379a000000000000000000000000000000000000000000000000000000000815260040161100390612939565b60405180910390fd5b61101983838360016116ad565b8273ffffffffffffffffffffffffffffffffffffffff16611039826108b6565b73ffffffffffffffffffffffffffffffffffffffff161461108f576040517f08c379a0000000000000000000000000000000000000000000000000000000008152600401611086906128a7565b60405180910390fd5b6004600082815260200190815260200160002060006101000a81549073ffffffffffffffffffffffffffffffffffffffff02191690556001600360008573ffffffffffffffffffffffffffffffffffffffff1673ffffffffffffffffffffffffffffffffffffffff168152602001908152602001600020600082825403925050819055506001600360008473ffffffffffffffffffffffffffffffffffffffff1673ffffffffffffffffffffffffffffffffffffffff16815260200190815260200160002060008282540192505081905550816002600083815260200190815260200160002060006101000a81548173ffffffffffffffffffffffffffffffffffffffff021916908373ffffffffffffffffffffffffffffffffffffffff160217905550808273ffffffffffffffffffffffffffffffffffffffff168473ffffffffffffffffffffffffffffffffffffffff167fddf252ad1be2c89b69c2b068fc378daa952ba7f163c4a11628f55a4df523b3ef60405160405180910390a461121b8383836001611765565b505050565b611228610dd1565b73ffffffffffffffffffffffffffffffffffffffff16611246610a69565b73ffffffffffffffffffffffffffffffffffffffff161461129c576040517f08c379a0000000000000000000000000000000000000000000000000000000008152600401611293906129a5565b60405180910390fd5b565b60008073ffffffffffffffffffffffffffffffffffffffff166112c0836112df565b73ffffffffffffffffffffffffffffffffffffffff1614159050919050565b60006002600083815260200190815260200160002060009054906101000a900473ffffffffffffffffffffffffffffffffffffffff169050919050565b61133682826040518060200160405280600081525061176b565b5050565b6000600660009054906101000a900473ffffffffffffffffffffffffffffffffffffffff16905081600660006101000a81548173ffffffffffffffffffffffffffffffffffffffff021916908373ffffffffffffffffffffffffffffffffffffffff1602179055508173ffffffffffffffffffffffffffffffffffffffff168173ffffffffffffffffffffffffffffffffffffffff167f8be0079c531659141344cd1fd0a4f28419497f9722a3daafe3b4186f6b6457e060405160405180910390a35050565b8173ffffffffffffffffffffffffffffffffffffffff168373ffffffffffffffffffffffffffffffffffffffff160361146e576040517f08c379a000000000000000000000000000000000000000000000000000000000815260040161146590612a11565b60405180910390fd5b80600560008573ffffffffffffffffffffffffffffffffffffffff1673ffffffffffffffffffffffffffffffffffffffff16815260200190815260200160002060008473ffffffffffffffffffffffffffffffffffffffff1673ffffffffffffffffffffffffffffffffffffffff16815260200190815260200160002060006101000a81548160ff0219169083151502179055508173ffffffffffffffffffffffffffffffffffffffff168373ffffffffffffffffffffffffffffffffffffffff167f17307eab39ab6107e8899845ad3d59bd9653f200f220920489ca2b5937696c318360405161155f9190611d9a565b60405180910390a3505050565b611577848484610f27565b611583848484846117c6565b6115c2576040517f08c379a00000000000000000000000000000000000000000000000000000000081526004016115b990612aa3565b60405180910390fd5b50505050565b606060405180602001604052806000815250905090565b6060600060016115ee8461194d565b01905060008167ffffffffffffffff81111561160d5761160c6120f2565b5b6040519080825280601f01601f19166020018201604052801561163f5781602001600182028036833780820191505090505b509050600082602001820190505b6001156116a2578080600190039150507f3031323334353637383961626364656600000000000000000000000000000000600a86061a8153600a858161169657611695612ac3565b5b0494506000850361164d575b819350505050919050565b600073ffffffffffffffffffffffffffffffffffffffff168473ffffffffffffffffffffffffffffffffffffffff1614806117145750600073ffffffffffffffffffffffffffffffffffffffff168373ffffffffffffffffffffffffffffffffffffffff16145b611753576040517f08c379a000000000000000000000000000000000000000000000000000000000815260040161174a90612b3e565b60405180910390fd5b61175f84848484611aa0565b50505050565b50505050565b6117758383611aa6565b61178260008484846117c6565b6117c1576040517f08c379a00000000000000000000000000000000000000000000000000000000081526004016117b890612aa3565b60405180910390fd5b505050565b60006117e78473ffffffffffffffffffffffffffffffffffffffff16611cc3565b15611940578373ffffffffffffffffffffffffffffffffffffffff1663150b7a02611810610dd1565b8786866040518563ffffffff1660e01b81526004016118329493929190612bb3565b6020604051808303816000875af192505050801561186e57506040513d601f19601f8201168201806040525081019061186b9190612c14565b60015b6118f0573d806000811461189e576040519150601f19603f3d011682016040523d82523d6000602084013e6118a3565b606091505b5060008151036118e8576040517f08c379a00000000000000000000000000000000000000000000000000000000081526004016118df90612aa3565b60405180910390fd5b805181602001fd5b63150b7a0260e01b7bffffffffffffffffffffffffffffffffffffffffffffffffffffffff1916817bffffffffffffffffffffffffffffffffffffffffffffffffffffffff191614915050611945565b600190505b949350505050565b600080600090507a184f03e93ff9f4daa797ed6e38ed64bf6a1f01000000000000000083106119ab577a184f03e93ff9f4daa797ed6e38ed64bf6a1f01000000000000000083816119a1576119a0612ac3565b5b0492506040810190505b6d04ee2d6d415b85acef810000000083106119e8576d04ee2d6d415b85acef810000000083816119de576119dd612ac3565b5b0492506020810190505b662386f26fc100008310611a1757662386f26fc100008381611a0d57611a0c612ac3565b5b0492506010810190505b6305f5e1008310611a40576305f5e1008381611a3657611a35612ac3565b5b0492506008810190505b6127108310611a65576127108381611a5b57611a5a612ac3565b5b0492506004810190505b60648310611a885760648381611a7e57611a7d612ac3565b5b0492506002810190505b600a8310611a97576001810190505b80915050919050565b50505050565b600073ffffffffffffffffffffffffffffffffffffffff168273ffffffffffffffffffffffffffffffffffffffff1603611b15576040517f08c379a0000000000000000000000000000000000000000000000000000000008152600401611b0c90612c8d565b60405180910390fd5b611b1e8161129e565b15611b5e576040517f08c379a0000000000000000000000000000000000000000000000000000000008152600401611b5590612cf9565b60405180910390fd5b611b6c6000838360016116ad565b611b758161129e565b15611bb5576040517f08c379a0000000000000000000000000000000000000000000000000000000008152600401611bac90612cf9565b60405180910390fd5b6001600360008473ffffffffffffffffffffffffffffffffffffffff1673ffffffffffffffffffffffffffffffffffffffff16815260200190815260200160002060008282540192505081905550816002600083815260200190815260200160002060006101000a81548173ffffffffffffffffffffffffffffffffffffffff021916908373ffffffffffffffffffffffffffffffffffffffff160217905550808273ffffffffffffffffffffffffffffffffffffffff16600073ffffffffffffffffffffffffffffffffffffffff167fddf252ad1be2c89b69c2b068fc378daa952ba7f163c4a11628f55a4df523b3ef60405160405180910390a4611cbf600083836001611765565b5050565b6000808273ffffffffffffffffffffffffffffffffffffffff163b119050919050565b6000604051905090565b600080fd5b600080fd5b60007fffffffff0000000000000000000000000000000000000000000000000000000082169050919050565b611d2f81611cfa565b8114611d3a57600080fd5b50565b600081359050611d4c81611d26565b92915050565b600060208284031215611d6857611d67611cf0565b5b6000611d7684828501611d3d565b91505092915050565b60008115159050919050565b611d9481611d7f565b82525050565b6000602082019050611daf6000830184611d8b565b92915050565b600081519050919050565b600082825260208201905092915050565b60005b83811015611def578082015181840152602081019050611dd4565b60008484015250505050565b6000601f19601f8301169050919050565b6000611e1782611db5565b611e218185611dc0565b9350611e31818560208601611dd1565b611e3a81611dfb565b840191505092915050565b60006020820190508181036000830152611e5f8184611e0c565b905092915050565b6000819050919050565b611e7a81611e67565b8114611e8557600080fd5b50565b600081359050611e9781611e71565b92915050565b600060208284031215611eb357611eb2611cf0565b5b6000611ec184828501611e88565b91505092915050565b600073ffffffffffffffffffffffffffffffffffffffff82169050919050565b6000611ef582611eca565b9050919050565b611f0581611eea565b82525050565b6000602082019050611f206000830184611efc565b92915050565b611f2f81611eea565b8114611f3a57600080fd5b50565b600081359050611f4c81611f26565b92915050565b60008060408385031215611f6957611f68611cf0565b5b6000611f7785828601611f3d565b9250506020611f8885828601611e88565b9150509250929050565b600080600060608486031215611fab57611faa611cf0565b5b6000611fb986828701611f3d565b9350506020611fca86828701611f3d565b9250506040611fdb86828701611e88565b9150509250925092565b60008060408385031215611ffc57611ffb611cf0565b5b600061200a85828601611e88565b925050602061201b85828601611e88565b9150509250929050565b60006020828403121561203b5761203a611cf0565b5b600061204984828501611f3d565b91505092915050565b61205b81611e67565b82525050565b60006020820190506120766000830184612052565b92915050565b61208581611d7f565b811461209057600080fd5b50565b6000813590506120a28161207c565b92915050565b600080604083850312156120bf576120be611cf0565b5b60006120cd85828601611f3d565b92505060206120de85828601612093565b9150509250929050565b600080fd5b600080fd5b7f4e487b7100000000000000000000000000000000000000000000000000000000600052604160045260246000fd5b61212a82611dfb565b810181811067ffffffffffffffff82111715612149576121486120f2565b5b80604052505050565b600061215c611ce6565b90506121688282612121565b919050565b600067ffffffffffffffff821115612188576121876120f2565b5b61219182611dfb565b9050602081019050919050565b82818337600083830152505050565b60006121c06121bb8461216d565b612152565b9050828152602081018484840111156121dc576121db6120ed565b5b6121e784828561219e565b509392505050565b600082601f830112612204576122036120e8565b5b81356122148482602086016121ad565b91505092915050565b6000806000806080858703121561223757612236611cf0565b5b600061224587828801611f3d565b945050602061225687828801611f3d565b935050604061226787828801611e88565b925050606085013567ffffffffffffffff81111561228857612287611cf5565b5b612294878288016121ef565b91505092959194509250565b600080604083850312156122b7576122b6611cf0565b5b60006122c585828601611f3d565b92505060206122d685828601611f3d565b9150509250929050565b7f4e487b7100000000000000000000000000000000000000000000000000000000600052602260045260246000fd5b6000600282049050600182168061232757607f821691505b60208210810361233a576123396122e0565b5b50919050565b7f4552433732313a20617070726f76616c20746f2063757272656e74206f776e6560008201527f7200000000000000000000000000000000000000000000000000000000000000602082015250565b600061239c602183611dc0565b91506123a782612340565b604082019050919050565b600060208201905081810360008301526123cb8161238f565b9050919050565b7f4552433732313a20617070726f76652063616c6c6572206973206e6f7420746f60008201527f6b656e206f776e6572206f7220617070726f76656420666f7220616c6c000000602082015250565b600061242e603d83611dc0565b9150612439826123d2565b604082019050919050565b6000602082019050818103600083015261245d81612421565b9050919050565b7f4552433732313a2063616c6c6572206973206e6f7420746f6b656e206f776e6560008201527f72206f7220617070726f76656400000000000000000000000000000000000000602082015250565b60006124c0602d83611dc0565b91506124cb82612464565b604082019050919050565b600060208201905081810360008301526124ef816124b3565b9050919050565b7f5342543a20746f6b656e20646f65736e27742065786973740000000000000000600082015250565b600061252c601883611dc0565b9150612537826124f6565b602082019050919050565b6000602082019050818103600083015261255b8161251f565b9050919050565b7f4e487b7100000000000000000000000000000000000000000000000000000000600052601160045260246000fd5b600061259c82611e67565b91507fffffffffffffffffffffffffffffffffffffffffffffffffffffffffffffffff82036125ce576125cd612562565b5b600182019050919050565b7f5342543a206f776e657220686173206e6f20746f6b656e000000000000000000600082015250565b600061260f601783611dc0565b915061261a826125d9565b602082019050919050565b6000602082019050818103600083015261263e81612602565b9050919050565b7f4552433732313a20696e76616c696420746f6b656e2049440000000000000000600082015250565b600061267b601883611dc0565b915061268682612645565b602082019050919050565b600060208201905081810360008301526126aa8161266e565b9050919050565b7f4552433732313a2061646472657373207a65726f206973206e6f74206120766160008201527f6c6964206f776e65720000000000000000000000000000000000000000000000602082015250565b600061270d602983611dc0565b9150612718826126b1565b604082019050919050565b6000602082019050818103600083015261273c81612700565b9050919050565b600081905092915050565b600061275982611db5565b6127638185612743565b9350612773818560208601611dd1565b80840191505092915050565b600061278b828561274e565b9150612797828461274e565b91508190509392505050565b7f4f776e61626c653a206e6577206f776e657220697320746865207a65726f206160008201527f6464726573730000000000000000000000000000000000000000000000000000602082015250565b60006127ff602683611dc0565b915061280a826127a3565b604082019050919050565b6000602082019050818103600083015261282e816127f2565b9050919050565b7f4552433732313a207472616e736665722066726f6d20696e636f72726563742060008201527f6f776e6572000000000000000000000000000000000000000000000000000000602082015250565b6000612891602583611dc0565b915061289c82612835565b604082019050919050565b600060208201905081810360008301526128c081612884565b9050919050565b7f4552433732313a207472616e7366657220746f20746865207a65726f2061646460008201527f7265737300000000000000000000000000000000000000000000000000000000602082015250565b6000612923602483611dc0565b915061292e826128c7565b604082019050919050565b6000602082019050818103600083015261295281612916565b9050919050565b7f4f776e61626c653a2063616c6c6572206973206e6f7420746865206f776e6572600082015250565b600061298f602083611dc0565b915061299a82612959565b602082019050919050565b600060208201905081810360008301526129be81612982565b9050919050565b7f4552433732313a20617070726f766520746f2063616c6c657200000000000000600082015250565b60006129fb601983611dc0565b9150612a06826129c5565b602082019050919050565b60006020820190508181036000830152612a2a816129ee565b9050919050565b7f4552433732313a207472616e7366657220746f206e6f6e20455243373231526560008201527f63656976657220696d706c656d656e7465720000000000000000000000000000602082015250565b6000612a8d603283611dc0565b9150612a9882612a31565b604082019050919050565b60006020820190508181036000830152612abc81612a80565b9050919050565b7f4e487b7100000000000000000000000000000000000000000000000000000000600052601260045260246000fd5b7f5342543a206e6f6e2d7472616e7366657261626c650000000000000000000000600082015250565b6000612b28601583611dc0565b9150612b3382612af2565b602082019050919050565b60006020820190508181036000830152612b5781612b1b565b9050919050565b600081519050919050565b600082825260208201905092915050565b6000612b8582612b5e565b612b8f8185612b69565b9350612b9f818560208601611dd1565b612ba881611dfb565b840191505092915050565b6000608082019050612bc86000830187611efc565b612bd56020830186611efc565b612be26040830185612052565b8181036060830152612bf48184612b7a565b905095945050505050565b600081519050612c0e81611d26565b92915050565b600060208284031215612c2a57612c29611cf0565b5b6000612c3884828501612bff565b91505092915050565b7f4552433732313a206d696e7420746f20746865207a65726f2061646472657373600082015250565b6000612c77602083611dc0565b9150612c8282612c41565b602082019050919050565b60006020820190508181036000830152612ca681612c6a565b9050919050565b7f4552433732313a20746f6b656e20616c7265616479206d696e74656400000000600082015250565b6000612ce3601c83611dc0565b9150612cee82612cad565b602082019050919050565b60006020820190508181036000830152612d1281612cd6565b905091905056fea2646970667358221220a41611b34d9560ec6fddab1d45ee609d88037b9ef941680bdeac1818f4566fce64736f6c63430008130033",
  "linkReferences": {},
  "deployedLinkReferences": {}
}